{
  "contractName": "ArbContract",
  "abi": [
    {
      "inputs": [],
      "stateMutability": "nonpayable",
      "type": "constructor"
    },
    {
      "inputs": [
        {
          "internalType": "address",
          "name": "_tokenAddress",
          "type": "address"
        }
      ],
      "name": "arbOnKyberToUniswap",
      "outputs": [
        {
          "internalType": "bool",
          "name": "",
          "type": "bool"
        }
      ],
      "stateMutability": "nonpayable",
      "type": "function"
    },
    {
      "inputs": [
        {
          "internalType": "address",
          "name": "_recipient",
          "type": "address"
        },
        {
          "internalType": "address",
          "name": "_tokenAddress",
          "type": "address"
        },
        {
          "internalType": "uint256",
          "name": "_amount",
          "type": "uint256"
        }
      ],
      "name": "withdrawTokens",
      "outputs": [],
      "stateMutability": "nonpayable",
      "type": "function"
    },
    {
      "inputs": [
        {
          "internalType": "address payable",
          "name": "_recipient",
          "type": "address"
        },
        {
          "internalType": "uint256",
          "name": "_amount",
          "type": "uint256"
        }
      ],
      "name": "withdrawEther",
      "outputs": [],
      "stateMutability": "nonpayable",
      "type": "function"
    }
  ],
  "bytecode": "0x608060405234801561001057600080fd5b50336000806101000a81548173ffffffffffffffffffffffffffffffffffffffff021916908373ffffffffffffffffffffffffffffffffffffffff16021790555073c0fc958f7108be4060f33a699a92d3ea49b0b5f0600260006101000a81548173ffffffffffffffffffffffffffffffffffffffff021916908373ffffffffffffffffffffffffffffffffffffffff1602179055506105c3806100b56000396000f3fe608060405234801561001057600080fd5b50600436106100415760003560e01c8063522f6815146100465780635e35359e14610094578063e3ac581014610102575b600080fd5b6100926004803603604081101561005c57600080fd5b81019080803573ffffffffffffffffffffffffffffffffffffffff1690602001909291908035906020019092919050505061015e565b005b610100600480360360608110156100aa57600080fd5b81019080803573ffffffffffffffffffffffffffffffffffffffff169060200190929190803573ffffffffffffffffffffffffffffffffffffffff16906020019092919080359060200190929190505050610202565b005b6101446004803603602081101561011857600080fd5b81019080803573ffffffffffffffffffffffffffffffffffffffff169060200190929190505050610386565b604051808215151515815260200191505060405180910390f35b6000809054906101000a900473ffffffffffffffffffffffffffffffffffffffff1673ffffffffffffffffffffffffffffffffffffffff163373ffffffffffffffffffffffffffffffffffffffff16146101b757600080fd5b8173ffffffffffffffffffffffffffffffffffffffff166108fc829081150290604051600060405180830381858888f193505050501580156101fd573d6000803e3d6000fd5b505050565b6000809054906101000a900473ffffffffffffffffffffffffffffffffffffffff1673ffffffffffffffffffffffffffffffffffffffff163373ffffffffffffffffffffffffffffffffffffffff161461025b57600080fd5b81600160006101000a81548173ffffffffffffffffffffffffffffffffffffffff021916908373ffffffffffffffffffffffffffffffffffffffff160217905550600160009054906101000a900473ffffffffffffffffffffffffffffffffffffffff1673ffffffffffffffffffffffffffffffffffffffff1663a9059cbb84836040518363ffffffff1660e01b8152600401808373ffffffffffffffffffffffffffffffffffffffff1673ffffffffffffffffffffffffffffffffffffffff16815260200182815260200192505050602060405180830381600087803b15801561034557600080fd5b505af1158015610359573d6000803e3d6000fd5b505050506040513d602081101561036f57600080fd5b810190808051906020019092919050505050505050565b60008060009054906101000a900473ffffffffffffffffffffffffffffffffffffffff1673ffffffffffffffffffffffffffffffffffffffff163373ffffffffffffffffffffffffffffffffffffffff16146103e157600080fd5b600082905060008173ffffffffffffffffffffffffffffffffffffffff166370a08231306040518263ffffffff1660e01b8152600401808273ffffffffffffffffffffffffffffffffffffffff1673ffffffffffffffffffffffffffffffffffffffff16815260200191505060206040518083038186803b15801561046557600080fd5b505afa158015610479573d6000803e3d6000fd5b505050506040513d602081101561048f57600080fd5b810190808051906020019092919050505090508173ffffffffffffffffffffffffffffffffffffffff1663a9059cbb6000809054906101000a900473ffffffffffffffffffffffffffffffffffffffff16836040518363ffffffff1660e01b8152600401808373ffffffffffffffffffffffffffffffffffffffff1673ffffffffffffffffffffffffffffffffffffffff16815260200182815260200192505050602060405180830381600087803b15801561054a57600080fd5b505af115801561055e573d6000803e3d6000fd5b505050506040513d602081101561057457600080fd5b810190808051906020019092919050505050505091905056fea2646970667358221220ef0049a208937babf77c16faa1e35e762042104b86e466290f885f71d358e1af64736f6c63430006060033",
  "immutableReferences": {},
  "source": "pragma solidity 0.6.6;\n\nimport \"@openzeppelin/contracts/token/ERC20/IERC20.sol\";\n\ninterface UNI {\n    // Address of ERC20 token sold on this exchange\n    function tokenAddress() external view returns (address token);\n    // Address of Uniswap Factory\n    function factoryAddress() external view returns (address factory);\n    // Provide Liquidity\n    function addLiquidity(uint256 min_liquidity, uint256 max_tokens, uint256 deadline) external payable returns (uint256);\n    function removeLiquidity(uint256 amount, uint256 min_eth, uint256 min_tokens, uint256 deadline) external returns (uint256, uint256);\n    // Get Prices\n    function getEthToTokenInputPrice(uint256 eth_sold) external view returns (uint256 tokens_bought);\n    function getEthToTokenOutputPrice(uint256 tokens_bought) external view returns (uint256 eth_sold);\n    function getTokenToEthInputPrice(uint256 tokens_sold) external view returns (uint256 eth_bought);\n    function getTokenToEthOutputPrice(uint256 eth_bought) external view returns (uint256 tokens_sold);\n    // Trade ETH to ERC20\n    function ethToTokenSwapInput(uint256 min_tokens, uint256 deadline) external payable returns (uint256  tokens_bought);\n    function ethToTokenTransferInput(uint256 min_tokens, uint256 deadline, address recipient) external payable returns (uint256  tokens_bought);\n    function ethToTokenSwapOutput(uint256 tokens_bought, uint256 deadline) external payable returns (uint256  eth_sold);\n    function ethToTokenTransferOutput(uint256 tokens_bought, uint256 deadline, address recipient) external payable returns (uint256  eth_sold);\n    // Trade ERC20 to ETH\n    function tokenToEthSwapInput(uint256 tokens_sold, uint256 min_eth, uint256 deadline) external returns (uint256  eth_bought);\n    function tokenToEthTransferInput(uint256 tokens_sold, uint256 min_eth, uint256 deadline, address recipient) external returns (uint256  eth_bought);\n    function tokenToEthSwapOutput(uint256 eth_bought, uint256 max_tokens, uint256 deadline) external returns (uint256  tokens_sold);\n    function tokenToEthTransferOutput(uint256 eth_bought, uint256 max_tokens, uint256 deadline, address recipient) external returns (uint256  tokens_sold);\n}\n\ncontract ArbContract {\n  address owner; // creater of the contract\n  IERC20 ERC20; // ERC20 token instance\n  UNI UNISWAP_DAI_V1; // Uniswap contract\n\n  modifier onlyOwner() {\n    if(msg.sender != owner) {\n      revert();\n    }\n    _;\n  }\n\n  constructor() public {\n    owner = msg.sender;\n    UNISWAP_DAI_V1 = UNI(0xc0fc958f7108be4060F33a699a92d3ea49b0B5f0);\n  }\n\n  function arbOnKyberToUniswap(address _tokenAddress) public onlyOwner returns(bool) {\n    IERC20 DAI = IERC20(_tokenAddress);\n    // UNISWAP_DAI_V1.getEthToTokenInputPrice(_inputAmount);\n    uint256 daiBalance = DAI.balanceOf(address(this));\n    DAI.transfer(owner, daiBalance);\n  }\n\n  function withdrawTokens(address _recipient, address _tokenAddress, uint256 _amount)\n  public\n  onlyOwner\n  {\n    ERC20 = IERC20(_tokenAddress);\n    ERC20.transfer(_recipient, _amount);\n  }\n\n  function withdrawEther(address payable _recipient, uint256 _amount)\n  public\n  onlyOwner\n  {\n    _recipient.transfer(_amount);\n  }\n}",
  "sourcePath": "/Users/justsomeguy/Documents/projects/crypto-trading-bot/contracts/ArbContract.sol",
  "compiler": {
    "name": "solc",
    "version": "0.6.6+commit.6c089d02.Emscripten.clang"
  },
  "schemaVersion": "3.1.0",
  "updatedAt": "2020-08-07T19:13:32.870Z",
  "devdoc": {
    "methods": {}
  },
  "userdoc": {
    "methods": {}
  }
}